{
  "contractName": "Factory",
  "abi": [
    {
      "constant": true,
      "inputs": [
        {
          "name": "",
          "type": "uint256"
        }
      ],
      "name": "index",
      "outputs": [
        {
          "name": "",
          "type": "address"
        }
      ],
      "payable": false,
      "stateMutability": "view",
      "type": "function",
      "signature": "0x335932fc"
    },
    {
      "constant": true,
      "inputs": [],
      "name": "counter",
      "outputs": [
        {
          "name": "",
          "type": "uint256"
        }
      ],
      "payable": false,
      "stateMutability": "view",
      "type": "function",
      "signature": "0x61bc221a"
    },
    {
      "constant": true,
      "inputs": [
        {
          "name": "",
          "type": "address"
        }
      ],
      "name": "contracts",
      "outputs": [
        {
          "name": "",
          "type": "address"
        }
      ],
      "payable": false,
      "stateMutability": "view",
      "type": "function",
      "signature": "0x69dc9ff3"
    },
    {
      "inputs": [],
      "payable": false,
      "stateMutability": "nonpayable",
      "type": "constructor",
      "signature": "constructor"
    },
    {
      "constant": false,
      "inputs": [
        {
          "name": "_symbol",
          "type": "string"
        },
        {
          "name": "_name",
          "type": "string"
        },
        {
          "name": "_hardcap",
          "type": "uint256"
        },
        {
          "name": "_owner",
          "type": "address"
        }
      ],
      "name": "createTokenSale",
      "outputs": [
        {
          "name": "",
          "type": "address"
        }
      ],
      "payable": false,
      "stateMutability": "nonpayable",
      "type": "function",
      "signature": "0x05609e7e"
    }
  ],
  "bytecode": "0x6080604052600160025534801561001557600080fd5b5061009d6040805190810160405280600581526020017f50524f4a580000000000000000000000000000000000000000000000000000008152506040805190810160405280600d81526020017f50726f6a6563742023312e303000000000000000000000000000000000000000815250610226306101b3640100000000026401000000009004565b506101256040805190810160405280600581526020017f50524f4a320000000000000000000000000000000000000000000000000000008152506040805190810160405280600d81526020017f50726f6a65637420237a776569000000000000000000000000000000000000008152506109f6306101b3640100000000026401000000009004565b506101ad6040805190810160405280600581526020017f50524f4a330000000000000000000000000000000000000000000000000000008152506040805190810160405280600d81526020017f50726f6a6563742023333333330000000000000000000000000000000000000081525061830e306101b3640100000000026401000000009004565b506103f5565b600080858585856101c26103e5565b8080602001806020018581526020018473ffffffffffffffffffffffffffffffffffffffff1673ffffffffffffffffffffffffffffffffffffffff168152602001838103835287818151815260200191508051906020019080838360005b8381101561023b578082015181840152602081019050610220565b50505050905090810190601f1680156102685780820380516001836020036101000a031916815260200191505b50838103825286818151815260200191508051906020019080838360005b838110156102a1578082015181840152602081019050610286565b50505050905090810190601f1680156102ce5780820380516001836020036101000a031916815260200191505b509650505050505050604051809103906000f0801580156102f3573d6000803e3d6000fd5b509050806000803373ffffffffffffffffffffffffffffffffffffffff1673ffffffffffffffffffffffffffffffffffffffff16815260200190815260200160002060006101000a81548173ffffffffffffffffffffffffffffffffffffffff021916908373ffffffffffffffffffffffffffffffffffffffff1602179055508060016000600254815260200190815260200160002060006101000a81548173ffffffffffffffffffffffffffffffffffffffff021916908373ffffffffffffffffffffffffffffffffffffffff16021790555060026000815480929190600101919050555080915050949350505050565b60405161108b80611ad083390190565b6116cc806104046000396000f3fe608060405260043610610062576000357c0100000000000000000000000000000000000000000000000000000000900463ffffffff16806305609e7e14610067578063335932fc1461023057806361bc221a146102ab57806369dc9ff3146102d6575b600080fd5b34801561007357600080fd5b506101ee6004803603608081101561008a57600080fd5b81019080803590602001906401000000008111156100a757600080fd5b8201836020820111156100b957600080fd5b803590602001918460018302840111640100000000831117156100db57600080fd5b91908080601f016020809104026020016040519081016040528093929190818152602001838380828437600081840152601f19601f8201169050808301925050505050505091929192908035906020019064010000000081111561013e57600080fd5b82018360208201111561015057600080fd5b8035906020019184600183028401116401000000008311171561017257600080fd5b91908080601f016020809104026020016040519081016040528093929190818152602001838380828437600081840152601f19601f82011690508083019250505050505050919291929080359060200190929190803573ffffffffffffffffffffffffffffffffffffffff169060200190929190505050610367565b604051808273ffffffffffffffffffffffffffffffffffffffff1673ffffffffffffffffffffffffffffffffffffffff16815260200191505060405180910390f35b34801561023c57600080fd5b506102696004803603602081101561025357600080fd5b8101908080359060200190929190505050610599565b604051808273ffffffffffffffffffffffffffffffffffffffff1673ffffffffffffffffffffffffffffffffffffffff16815260200191505060405180910390f35b3480156102b757600080fd5b506102c06105cc565b6040518082815260200191505060405180910390f35b3480156102e257600080fd5b50610325600480360360208110156102f957600080fd5b81019080803573ffffffffffffffffffffffffffffffffffffffff1690602001909291905050506105d2565b604051808273ffffffffffffffffffffffffffffffffffffffff1673ffffffffffffffffffffffffffffffffffffffff16815260200191505060405180910390f35b60008085858585610376610605565b8080602001806020018581526020018473ffffffffffffffffffffffffffffffffffffffff1673ffffffffffffffffffffffffffffffffffffffff168152602001838103835287818151815260200191508051906020019080838360005b838110156103ef5780820151818401526020810190506103d4565b50505050905090810190601f16801561041c5780820380516001836020036101000a031916815260200191505b50838103825286818151815260200191508051906020019080838360005b8381101561045557808201518184015260208101905061043a565b50505050905090810190601f1680156104825780820380516001836020036101000a031916815260200191505b509650505050505050604051809103906000f0801580156104a7573d6000803e3d6000fd5b509050806000803373ffffffffffffffffffffffffffffffffffffffff1673ffffffffffffffffffffffffffffffffffffffff16815260200190815260200160002060006101000a81548173ffffffffffffffffffffffffffffffffffffffff021916908373ffffffffffffffffffffffffffffffffffffffff1602179055508060016000600254815260200190815260200160002060006101000a81548173ffffffffffffffffffffffffffffffffffffffff021916908373ffffffffffffffffffffffffffffffffffffffff16021790555060026000815480929190600101919050555080915050949350505050565b60016020528060005260406000206000915054906101000a900473ffffffffffffffffffffffffffffffffffffffff1681565b60025481565b60006020528060005260406000206000915054906101000a900473ffffffffffffffffffffffffffffffffffffffff1681565b60405161108b806106168339019056fe608060405260008060146101000a81548160ff02191690831515021790555034801561002a57600080fd5b5060405161108b38038061108b8339810180604052608081101561004d57600080fd5b81019080805164010000000081111561006557600080fd5b8281019050602081018481111561007b57600080fd5b815185600182028301116401000000008211171561009857600080fd5b505092919060200180516401000000008111156100b457600080fd5b828101905060208101848111156100ca57600080fd5b81518560018202830111640100000000821117156100e757600080fd5b50509291906020018051906020019092919080519060200190929190505050806000806101000a81548173ffffffffffffffffffffffffffffffffffffffff021916908373ffffffffffffffffffffffffffffffffffffffff160217905550426001819055508284600a8461015a6102a9565b808060200180602001858152602001848152602001838103835287818151815260200191508051906020019080838360005b838110156101a757808201518184015260208101905061018c565b50505050905090810190601f1680156101d45780820380516001836020036101000a031916815260200191505b50838103825286818151815260200191508051906020019080838360005b8381101561020d5780820151818401526020810190506101f2565b50505050905090810190601f16801561023a5780820380516001836020036101000a031916815260200191505b509650505050505050604051809103906000f08015801561025f573d6000803e3d6000fd5b50600260006101000a81548173ffffffffffffffffffffffffffffffffffffffff021916908373ffffffffffffffffffffffffffffffffffffffff160217905550505050506102b9565b6040516107568061093583390190565b61066d806102c86000396000f3fe608060405260043610610083576000357c0100000000000000000000000000000000000000000000000000000000900463ffffffff168063150704011461008857806317d7de7c1461011857806325cfd87a146101a857806351f9ced3146101d35780636c9c2faf1461022a578063d4430bc714610255578063d500958414610284575b600080fd5b34801561009457600080fd5b5061009d6102db565b6040518080602001828103825283818151815260200191508051906020019080838360005b838110156100dd5780820151818401526020810190506100c2565b50505050905090810190601f16801561010a5780820380516001836020036101000a031916815260200191505b509250505060405180910390f35b34801561012457600080fd5b5061012d6103f7565b6040518080602001828103825283818151815260200191508051906020019080838360005b8381101561016d578082015181840152602081019050610152565b50505050905090810190601f16801561019a5780820380516001836020036101000a031916815260200191505b509250505060405180910390f35b3480156101b457600080fd5b506101bd610513565b6040518082815260200191505060405180910390f35b3480156101df57600080fd5b506101e8610519565b604051808273ffffffffffffffffffffffffffffffffffffffff1673ffffffffffffffffffffffffffffffffffffffff16815260200191505060405180910390f35b34801561023657600080fd5b5061023f61053f565b6040518082815260200191505060405180910390f35b34801561026157600080fd5b5061026a610605565b604051808215151515815260200191505060405180910390f35b34801561029057600080fd5b50610299610618565b604051808273ffffffffffffffffffffffffffffffffffffffff1673ffffffffffffffffffffffffffffffffffffffff16815260200191505060405180910390f35b6060600260009054906101000a900473ffffffffffffffffffffffffffffffffffffffff1673ffffffffffffffffffffffffffffffffffffffff166395d89b416040518163ffffffff167c010000000000000000000000000000000000000000000000000000000002815260040160006040518083038186803b15801561036157600080fd5b505afa158015610375573d6000803e3d6000fd5b505050506040513d6000823e3d601f19601f82011682018060405250602081101561039f57600080fd5b8101908080516401000000008111156103b757600080fd5b828101905060208101848111156103cd57600080fd5b81518560018202830111640100000000821117156103ea57600080fd5b5050929190505050905090565b6060600260009054906101000a900473ffffffffffffffffffffffffffffffffffffffff1673ffffffffffffffffffffffffffffffffffffffff166306fdde036040518163ffffffff167c010000000000000000000000000000000000000000000000000000000002815260040160006040518083038186803b15801561047d57600080fd5b505afa158015610491573d6000803e3d6000fd5b505050506040513d6000823e3d601f19601f8201168201806040525060208110156104bb57600080fd5b8101908080516401000000008111156104d357600080fd5b828101905060208101848111156104e957600080fd5b815185600182028301116401000000008211171561050657600080fd5b5050929190505050905090565b60015481565b600260009054906101000a900473ffffffffffffffffffffffffffffffffffffffff1681565b6000600260009054906101000a900473ffffffffffffffffffffffffffffffffffffffff1673ffffffffffffffffffffffffffffffffffffffff1663047fc9aa6040518163ffffffff167c010000000000000000000000000000000000000000000000000000000002815260040160206040518083038186803b1580156105c557600080fd5b505afa1580156105d9573d6000803e3d6000fd5b505050506040513d60208110156105ef57600080fd5b8101908080519060200190929190505050905090565b600060149054906101000a900460ff1681565b60008060009054906101000a900473ffffffffffffffffffffffffffffffffffffffff1690509056fea165627a7a723058203ffbbf35321126c03fb5aa6be8d578ecffff192c246e24ccccc0329681db75f30029608060405234801561001057600080fd5b506040516107563803806107568339810180604052608081101561003357600080fd5b81019080805164010000000081111561004b57600080fd5b8281019050602081018481111561006157600080fd5b815185600182028301116401000000008211171561007e57600080fd5b5050929190602001805164010000000081111561009a57600080fd5b828101905060208101848111156100b057600080fd5b81518560018202830111640100000000821117156100cd57600080fd5b505092919060200180519060200190929190805190602001909291905050508360019080519060200190610102929190610131565b508260029080519060200190610119929190610131565b508160038190555080600481905550505050506101d6565b828054600181600116156101000203166002900490600052602060002090601f016020900481019282601f1061017257805160ff19168380011785556101a0565b828001600101855582156101a0579182015b8281111561019f578251825591602001919060010190610184565b5b5090506101ad91906101b1565b5090565b6101d391905b808211156101cf5760008160009055506001016101b7565b5090565b90565b610571806101e56000396000f3fe608060405260043610610078576000357c0100000000000000000000000000000000000000000000000000000000900463ffffffff168063047fc9aa1461007d57806306fdde03146100a8578063095ea7b314610138578063313ce567146101ab57806395d89b41146101d6578063dd62ed3e14610266575b600080fd5b34801561008957600080fd5b506100926102eb565b6040518082815260200191505060405180910390f35b3480156100b457600080fd5b506100bd6102f1565b6040518080602001828103825283818151815260200191508051906020019080838360005b838110156100fd5780820151818401526020810190506100e2565b50505050905090810190601f16801561012a5780820380516001836020036101000a031916815260200191505b509250505060405180910390f35b34801561014457600080fd5b506101916004803603604081101561015b57600080fd5b81019080803573ffffffffffffffffffffffffffffffffffffffff1690602001909291908035906020019092919050505061038f565b604051808215151515815260200191505060405180910390f35b3480156101b757600080fd5b506101c061041b565b6040518082815260200191505060405180910390f35b3480156101e257600080fd5b506101eb610421565b6040518080602001828103825283818151815260200191508051906020019080838360005b8381101561022b578082015181840152602081019050610210565b50505050905090810190601f1680156102585780820380516001836020036101000a031916815260200191505b509250505060405180910390f35b34801561027257600080fd5b506102d56004803603604081101561028957600080fd5b81019080803573ffffffffffffffffffffffffffffffffffffffff169060200190929190803573ffffffffffffffffffffffffffffffffffffffff1690602001909291905050506104bf565b6040518082815260200191505060405180910390f35b60045481565b60018054600181600116156101000203166002900480601f0160208091040260200160405190810160405280929190818152602001828054600181600116156101000203166002900480156103875780601f1061035c57610100808354040283529160200191610387565b820191906000526020600020905b81548152906001019060200180831161036a57829003601f168201915b505050505081565b6000816000803373ffffffffffffffffffffffffffffffffffffffff1673ffffffffffffffffffffffffffffffffffffffff16815260200190815260200160002060008573ffffffffffffffffffffffffffffffffffffffff1673ffffffffffffffffffffffffffffffffffffffff168152602001908152602001600020819055506001905092915050565b60035481565b60028054600181600116156101000203166002900480601f0160208091040260200160405190810160405280929190818152602001828054600181600116156101000203166002900480156104b75780601f1061048c576101008083540402835291602001916104b7565b820191906000526020600020905b81548152906001019060200180831161049a57829003601f168201915b505050505081565b60008060008473ffffffffffffffffffffffffffffffffffffffff1673ffffffffffffffffffffffffffffffffffffffff16815260200190815260200160002060008373ffffffffffffffffffffffffffffffffffffffff1673ffffffffffffffffffffffffffffffffffffffff1681526020019081526020016000205490509291505056fea165627a7a72305820fb4404504b1e2d4f4cb0c3e6a56443c38cce0749e5b99eccaeea1c80320758dd0029a165627a7a72305820b4a7119bcdee17bf6056ebd64d7a238e5854e7027b6dcef16db8d282b2ba38900029608060405260008060146101000a81548160ff02191690831515021790555034801561002a57600080fd5b5060405161108b38038061108b8339810180604052608081101561004d57600080fd5b81019080805164010000000081111561006557600080fd5b8281019050602081018481111561007b57600080fd5b815185600182028301116401000000008211171561009857600080fd5b505092919060200180516401000000008111156100b457600080fd5b828101905060208101848111156100ca57600080fd5b81518560018202830111640100000000821117156100e757600080fd5b50509291906020018051906020019092919080519060200190929190505050806000806101000a81548173ffffffffffffffffffffffffffffffffffffffff021916908373ffffffffffffffffffffffffffffffffffffffff160217905550426001819055508284600a8461015a6102a9565b808060200180602001858152602001848152602001838103835287818151815260200191508051906020019080838360005b838110156101a757808201518184015260208101905061018c565b50505050905090810190601f1680156101d45780820380516001836020036101000a031916815260200191505b50838103825286818151815260200191508051906020019080838360005b8381101561020d5780820151818401526020810190506101f2565b50505050905090810190601f16801561023a5780820380516001836020036101000a031916815260200191505b509650505050505050604051809103906000f08015801561025f573d6000803e3d6000fd5b50600260006101000a81548173ffffffffffffffffffffffffffffffffffffffff021916908373ffffffffffffffffffffffffffffffffffffffff160217905550505050506102b9565b6040516107568061093583390190565b61066d806102c86000396000f3fe608060405260043610610083576000357c0100000000000000000000000000000000000000000000000000000000900463ffffffff168063150704011461008857806317d7de7c1461011857806325cfd87a146101a857806351f9ced3146101d35780636c9c2faf1461022a578063d4430bc714610255578063d500958414610284575b600080fd5b34801561009457600080fd5b5061009d6102db565b6040518080602001828103825283818151815260200191508051906020019080838360005b838110156100dd5780820151818401526020810190506100c2565b50505050905090810190601f16801561010a5780820380516001836020036101000a031916815260200191505b509250505060405180910390f35b34801561012457600080fd5b5061012d6103f7565b6040518080602001828103825283818151815260200191508051906020019080838360005b8381101561016d578082015181840152602081019050610152565b50505050905090810190601f16801561019a5780820380516001836020036101000a031916815260200191505b509250505060405180910390f35b3480156101b457600080fd5b506101bd610513565b6040518082815260200191505060405180910390f35b3480156101df57600080fd5b506101e8610519565b604051808273ffffffffffffffffffffffffffffffffffffffff1673ffffffffffffffffffffffffffffffffffffffff16815260200191505060405180910390f35b34801561023657600080fd5b5061023f61053f565b6040518082815260200191505060405180910390f35b34801561026157600080fd5b5061026a610605565b604051808215151515815260200191505060405180910390f35b34801561029057600080fd5b50610299610618565b604051808273ffffffffffffffffffffffffffffffffffffffff1673ffffffffffffffffffffffffffffffffffffffff16815260200191505060405180910390f35b6060600260009054906101000a900473ffffffffffffffffffffffffffffffffffffffff1673ffffffffffffffffffffffffffffffffffffffff166395d89b416040518163ffffffff167c010000000000000000000000000000000000000000000000000000000002815260040160006040518083038186803b15801561036157600080fd5b505afa158015610375573d6000803e3d6000fd5b505050506040513d6000823e3d601f19601f82011682018060405250602081101561039f57600080fd5b8101908080516401000000008111156103b757600080fd5b828101905060208101848111156103cd57600080fd5b81518560018202830111640100000000821117156103ea57600080fd5b5050929190505050905090565b6060600260009054906101000a900473ffffffffffffffffffffffffffffffffffffffff1673ffffffffffffffffffffffffffffffffffffffff166306fdde036040518163ffffffff167c010000000000000000000000000000000000000000000000000000000002815260040160006040518083038186803b15801561047d57600080fd5b505afa158015610491573d6000803e3d6000fd5b505050506040513d6000823e3d601f19601f8201168201806040525060208110156104bb57600080fd5b8101908080516401000000008111156104d357600080fd5b828101905060208101848111156104e957600080fd5b815185600182028301116401000000008211171561050657600080fd5b5050929190505050905090565b60015481565b600260009054906101000a900473ffffffffffffffffffffffffffffffffffffffff1681565b6000600260009054906101000a900473ffffffffffffffffffffffffffffffffffffffff1673ffffffffffffffffffffffffffffffffffffffff1663047fc9aa6040518163ffffffff167c010000000000000000000000000000000000000000000000000000000002815260040160206040518083038186803b1580156105c557600080fd5b505afa1580156105d9573d6000803e3d6000fd5b505050506040513d60208110156105ef57600080fd5b8101908080519060200190929190505050905090565b600060149054906101000a900460ff1681565b60008060009054906101000a900473ffffffffffffffffffffffffffffffffffffffff1690509056fea165627a7a723058203ffbbf35321126c03fb5aa6be8d578ecffff192c246e24ccccc0329681db75f30029608060405234801561001057600080fd5b506040516107563803806107568339810180604052608081101561003357600080fd5b81019080805164010000000081111561004b57600080fd5b8281019050602081018481111561006157600080fd5b815185600182028301116401000000008211171561007e57600080fd5b5050929190602001805164010000000081111561009a57600080fd5b828101905060208101848111156100b057600080fd5b81518560018202830111640100000000821117156100cd57600080fd5b505092919060200180519060200190929190805190602001909291905050508360019080519060200190610102929190610131565b508260029080519060200190610119929190610131565b508160038190555080600481905550505050506101d6565b828054600181600116156101000203166002900490600052602060002090601f016020900481019282601f1061017257805160ff19168380011785556101a0565b828001600101855582156101a0579182015b8281111561019f578251825591602001919060010190610184565b5b5090506101ad91906101b1565b5090565b6101d391905b808211156101cf5760008160009055506001016101b7565b5090565b90565b610571806101e56000396000f3fe608060405260043610610078576000357c0100000000000000000000000000000000000000000000000000000000900463ffffffff168063047fc9aa1461007d57806306fdde03146100a8578063095ea7b314610138578063313ce567146101ab57806395d89b41146101d6578063dd62ed3e14610266575b600080fd5b34801561008957600080fd5b506100926102eb565b6040518082815260200191505060405180910390f35b3480156100b457600080fd5b506100bd6102f1565b6040518080602001828103825283818151815260200191508051906020019080838360005b838110156100fd5780820151818401526020810190506100e2565b50505050905090810190601f16801561012a5780820380516001836020036101000a031916815260200191505b509250505060405180910390f35b34801561014457600080fd5b506101916004803603604081101561015b57600080fd5b81019080803573ffffffffffffffffffffffffffffffffffffffff1690602001909291908035906020019092919050505061038f565b604051808215151515815260200191505060405180910390f35b3480156101b757600080fd5b506101c061041b565b6040518082815260200191505060405180910390f35b3480156101e257600080fd5b506101eb610421565b6040518080602001828103825283818151815260200191508051906020019080838360005b8381101561022b578082015181840152602081019050610210565b50505050905090810190601f1680156102585780820380516001836020036101000a031916815260200191505b509250505060405180910390f35b34801561027257600080fd5b506102d56004803603604081101561028957600080fd5b81019080803573ffffffffffffffffffffffffffffffffffffffff169060200190929190803573ffffffffffffffffffffffffffffffffffffffff1690602001909291905050506104bf565b6040518082815260200191505060405180910390f35b60045481565b60018054600181600116156101000203166002900480601f0160208091040260200160405190810160405280929190818152602001828054600181600116156101000203166002900480156103875780601f1061035c57610100808354040283529160200191610387565b820191906000526020600020905b81548152906001019060200180831161036a57829003601f168201915b505050505081565b6000816000803373ffffffffffffffffffffffffffffffffffffffff1673ffffffffffffffffffffffffffffffffffffffff16815260200190815260200160002060008573ffffffffffffffffffffffffffffffffffffffff1673ffffffffffffffffffffffffffffffffffffffff168152602001908152602001600020819055506001905092915050565b60035481565b60028054600181600116156101000203166002900480601f0160208091040260200160405190810160405280929190818152602001828054600181600116156101000203166002900480156104b75780601f1061048c576101008083540402835291602001916104b7565b820191906000526020600020905b81548152906001019060200180831161049a57829003601f168201915b505050505081565b60008060008473ffffffffffffffffffffffffffffffffffffffff1673ffffffffffffffffffffffffffffffffffffffff16815260200190815260200160002060008373ffffffffffffffffffffffffffffffffffffffff1673ffffffffffffffffffffffffffffffffffffffff1681526020019081526020016000205490509291505056fea165627a7a72305820fb4404504b1e2d4f4cb0c3e6a56443c38cce0749e5b99eccaeea1c80320758dd0029",
  "source": "pragma solidity ^0.5.0;\n\nimport \"./SimpleStorage.sol\";\n\n\ncontract Factory {\n    \n    // maps user address to Token Sale contract address (not sure if needed)\n    mapping (address => address) public contracts;\n    \n    // maps each contract to a uint for indexing the deployed contracts\n    mapping (uint256 => address) public index;\n\n    // counter that tracks the number of created Token Sale contracts\n    uint public counter = 1;\n\n\n    // scenario that gets deploys several contracts when the factory is deployed (for testing)\n    constructor() public {\n        createTokenSale(\"PROJX\", \"Project #1.00\", 550, address(this));\n        createTokenSale(\"PROJ2\", \"Project #zwei\", 2550, address(this));\n        createTokenSale(\"PROJ3\", \"Project #3333\", 33550, address(this));\n    }\n\n    // creates a Token Sale contract and pushes the address and index (starting at 1) to the array\n    function createTokenSale(string memory _symbol, string memory _name, uint256 _hardcap, address _owner) public returns (address){\n        SimpleStorage newTokenSale = (new SimpleStorage(_symbol, _name, _hardcap, _owner));\n        contracts[msg.sender] = address(newTokenSale);\n        index[counter] = address(newTokenSale);\n        counter++;\n        return address(newTokenSale);\n    }\n\n}",
  "sourcePath": "/Users/Len/Desktop/github/unboxing/contracts/Factory.sol",
  "compiler": {
    "name": "solc",
    "version": "0.5.0+commit.1d4f565a.Emscripten.clang"
  },
  "schemaVersion": "3.0.1",
  "updatedAt": "2019-02-15T22:10:53.585Z",
  "devdoc": {
    "methods": {}
  },
  "userdoc": {
    "methods": {}
  }
}