{
  "contractName": "SimpleStorage",
  "abi": [
    {
      "constant": true,
      "inputs": [],
      "name": "dateOfDeploy",
      "outputs": [
        {
          "name": "",
          "type": "uint256"
        }
      ],
      "payable": false,
      "stateMutability": "view",
      "type": "function"
    },
    {
      "constant": true,
      "inputs": [],
      "name": "WHtoken",
      "outputs": [
        {
          "name": "",
          "type": "address"
        }
      ],
      "payable": false,
      "stateMutability": "view",
      "type": "function"
    },
    {
      "constant": true,
      "inputs": [],
      "name": "tokenSaleOngoing",
      "outputs": [
        {
          "name": "",
          "type": "bool"
        }
      ],
      "payable": false,
      "stateMutability": "view",
      "type": "function"
    },
    {
      "inputs": [
        {
          "name": "_symbol",
          "type": "string"
        },
        {
          "name": "_name",
          "type": "string"
        },
        {
          "name": "_supply",
          "type": "uint256"
        },
        {
          "name": "_owner",
          "type": "address"
        }
      ],
      "payable": false,
      "stateMutability": "nonpayable",
      "type": "constructor"
    },
    {
      "payable": true,
      "stateMutability": "payable",
      "type": "fallback"
    },
    {
      "constant": true,
      "inputs": [],
      "name": "getManager",
      "outputs": [
        {
          "name": "",
          "type": "address"
        }
      ],
      "payable": false,
      "stateMutability": "view",
      "type": "function"
    },
    {
      "constant": true,
      "inputs": [],
      "name": "getName",
      "outputs": [
        {
          "name": "",
          "type": "string"
        }
      ],
      "payable": false,
      "stateMutability": "view",
      "type": "function"
    },
    {
      "constant": true,
      "inputs": [],
      "name": "getSymbol",
      "outputs": [
        {
          "name": "",
          "type": "string"
        }
      ],
      "payable": false,
      "stateMutability": "view",
      "type": "function"
    },
    {
      "constant": true,
      "inputs": [],
      "name": "getSupply",
      "outputs": [
        {
          "name": "",
          "type": "uint256"
        }
      ],
      "payable": false,
      "stateMutability": "view",
      "type": "function"
    }
  ],
  "bytecode": "0x608060405260008060146101000a81548160ff02191690831515021790555034801561002a57600080fd5b5060405161108b38038061108b8339810180604052608081101561004d57600080fd5b81019080805164010000000081111561006557600080fd5b8281019050602081018481111561007b57600080fd5b815185600182028301116401000000008211171561009857600080fd5b505092919060200180516401000000008111156100b457600080fd5b828101905060208101848111156100ca57600080fd5b81518560018202830111640100000000821117156100e757600080fd5b50509291906020018051906020019092919080519060200190929190505050806000806101000a81548173ffffffffffffffffffffffffffffffffffffffff021916908373ffffffffffffffffffffffffffffffffffffffff160217905550426001819055508284600a8461015a6102a9565b808060200180602001858152602001848152602001838103835287818151815260200191508051906020019080838360005b838110156101a757808201518184015260208101905061018c565b50505050905090810190601f1680156101d45780820380516001836020036101000a031916815260200191505b50838103825286818151815260200191508051906020019080838360005b8381101561020d5780820151818401526020810190506101f2565b50505050905090810190601f16801561023a5780820380516001836020036101000a031916815260200191505b509650505050505050604051809103906000f08015801561025f573d6000803e3d6000fd5b50600260006101000a81548173ffffffffffffffffffffffffffffffffffffffff021916908373ffffffffffffffffffffffffffffffffffffffff160217905550505050506102b9565b6040516107568061093583390190565b61066d806102c86000396000f3fe608060405260043610610083576000357c0100000000000000000000000000000000000000000000000000000000900463ffffffff168063150704011461008857806317d7de7c1461011857806325cfd87a146101a857806351f9ced3146101d35780636c9c2faf1461022a578063d4430bc714610255578063d500958414610284575b600080fd5b34801561009457600080fd5b5061009d6102db565b6040518080602001828103825283818151815260200191508051906020019080838360005b838110156100dd5780820151818401526020810190506100c2565b50505050905090810190601f16801561010a5780820380516001836020036101000a031916815260200191505b509250505060405180910390f35b34801561012457600080fd5b5061012d6103f7565b6040518080602001828103825283818151815260200191508051906020019080838360005b8381101561016d578082015181840152602081019050610152565b50505050905090810190601f16801561019a5780820380516001836020036101000a031916815260200191505b509250505060405180910390f35b3480156101b457600080fd5b506101bd610513565b6040518082815260200191505060405180910390f35b3480156101df57600080fd5b506101e8610519565b604051808273ffffffffffffffffffffffffffffffffffffffff1673ffffffffffffffffffffffffffffffffffffffff16815260200191505060405180910390f35b34801561023657600080fd5b5061023f61053f565b6040518082815260200191505060405180910390f35b34801561026157600080fd5b5061026a610605565b604051808215151515815260200191505060405180910390f35b34801561029057600080fd5b50610299610618565b604051808273ffffffffffffffffffffffffffffffffffffffff1673ffffffffffffffffffffffffffffffffffffffff16815260200191505060405180910390f35b6060600260009054906101000a900473ffffffffffffffffffffffffffffffffffffffff1673ffffffffffffffffffffffffffffffffffffffff166395d89b416040518163ffffffff167c010000000000000000000000000000000000000000000000000000000002815260040160006040518083038186803b15801561036157600080fd5b505afa158015610375573d6000803e3d6000fd5b505050506040513d6000823e3d601f19601f82011682018060405250602081101561039f57600080fd5b8101908080516401000000008111156103b757600080fd5b828101905060208101848111156103cd57600080fd5b81518560018202830111640100000000821117156103ea57600080fd5b5050929190505050905090565b6060600260009054906101000a900473ffffffffffffffffffffffffffffffffffffffff1673ffffffffffffffffffffffffffffffffffffffff166306fdde036040518163ffffffff167c010000000000000000000000000000000000000000000000000000000002815260040160006040518083038186803b15801561047d57600080fd5b505afa158015610491573d6000803e3d6000fd5b505050506040513d6000823e3d601f19601f8201168201806040525060208110156104bb57600080fd5b8101908080516401000000008111156104d357600080fd5b828101905060208101848111156104e957600080fd5b815185600182028301116401000000008211171561050657600080fd5b5050929190505050905090565b60015481565b600260009054906101000a900473ffffffffffffffffffffffffffffffffffffffff1681565b6000600260009054906101000a900473ffffffffffffffffffffffffffffffffffffffff1673ffffffffffffffffffffffffffffffffffffffff1663047fc9aa6040518163ffffffff167c010000000000000000000000000000000000000000000000000000000002815260040160206040518083038186803b1580156105c557600080fd5b505afa1580156105d9573d6000803e3d6000fd5b505050506040513d60208110156105ef57600080fd5b8101908080519060200190929190505050905090565b600060149054906101000a900460ff1681565b60008060009054906101000a900473ffffffffffffffffffffffffffffffffffffffff1690509056fea165627a7a723058203ffbbf35321126c03fb5aa6be8d578ecffff192c246e24ccccc0329681db75f30029608060405234801561001057600080fd5b506040516107563803806107568339810180604052608081101561003357600080fd5b81019080805164010000000081111561004b57600080fd5b8281019050602081018481111561006157600080fd5b815185600182028301116401000000008211171561007e57600080fd5b5050929190602001805164010000000081111561009a57600080fd5b828101905060208101848111156100b057600080fd5b81518560018202830111640100000000821117156100cd57600080fd5b505092919060200180519060200190929190805190602001909291905050508360019080519060200190610102929190610131565b508260029080519060200190610119929190610131565b508160038190555080600481905550505050506101d6565b828054600181600116156101000203166002900490600052602060002090601f016020900481019282601f1061017257805160ff19168380011785556101a0565b828001600101855582156101a0579182015b8281111561019f578251825591602001919060010190610184565b5b5090506101ad91906101b1565b5090565b6101d391905b808211156101cf5760008160009055506001016101b7565b5090565b90565b610571806101e56000396000f3fe608060405260043610610078576000357c0100000000000000000000000000000000000000000000000000000000900463ffffffff168063047fc9aa1461007d57806306fdde03146100a8578063095ea7b314610138578063313ce567146101ab57806395d89b41146101d6578063dd62ed3e14610266575b600080fd5b34801561008957600080fd5b506100926102eb565b6040518082815260200191505060405180910390f35b3480156100b457600080fd5b506100bd6102f1565b6040518080602001828103825283818151815260200191508051906020019080838360005b838110156100fd5780820151818401526020810190506100e2565b50505050905090810190601f16801561012a5780820380516001836020036101000a031916815260200191505b509250505060405180910390f35b34801561014457600080fd5b506101916004803603604081101561015b57600080fd5b81019080803573ffffffffffffffffffffffffffffffffffffffff1690602001909291908035906020019092919050505061038f565b604051808215151515815260200191505060405180910390f35b3480156101b757600080fd5b506101c061041b565b6040518082815260200191505060405180910390f35b3480156101e257600080fd5b506101eb610421565b6040518080602001828103825283818151815260200191508051906020019080838360005b8381101561022b578082015181840152602081019050610210565b50505050905090810190601f1680156102585780820380516001836020036101000a031916815260200191505b509250505060405180910390f35b34801561027257600080fd5b506102d56004803603604081101561028957600080fd5b81019080803573ffffffffffffffffffffffffffffffffffffffff169060200190929190803573ffffffffffffffffffffffffffffffffffffffff1690602001909291905050506104bf565b6040518082815260200191505060405180910390f35b60045481565b60018054600181600116156101000203166002900480601f0160208091040260200160405190810160405280929190818152602001828054600181600116156101000203166002900480156103875780601f1061035c57610100808354040283529160200191610387565b820191906000526020600020905b81548152906001019060200180831161036a57829003601f168201915b505050505081565b6000816000803373ffffffffffffffffffffffffffffffffffffffff1673ffffffffffffffffffffffffffffffffffffffff16815260200190815260200160002060008573ffffffffffffffffffffffffffffffffffffffff1673ffffffffffffffffffffffffffffffffffffffff168152602001908152602001600020819055506001905092915050565b60035481565b60028054600181600116156101000203166002900480601f0160208091040260200160405190810160405280929190818152602001828054600181600116156101000203166002900480156104b75780601f1061048c576101008083540402835291602001916104b7565b820191906000526020600020905b81548152906001019060200180831161049a57829003601f168201915b505050505081565b60008060008473ffffffffffffffffffffffffffffffffffffffff1673ffffffffffffffffffffffffffffffffffffffff16815260200190815260200160002060008373ffffffffffffffffffffffffffffffffffffffff1673ffffffffffffffffffffffffffffffffffffffff1681526020019081526020016000205490509291505056fea165627a7a72305820fb4404504b1e2d4f4cb0c3e6a56443c38cce0749e5b99eccaeea1c80320758dd0029",
  "source": "pragma solidity ^0.5.0;\n\nimport \"./StandardToken.sol\";\n\n\ncontract SimpleStorage {\n\n  address manager;\n  \n  bool public tokenSaleOngoing = false;\n  uint256 public dateOfDeploy;\n\n   // create an instance of StandardToken\n  StandardToken public WHtoken;\n\n  //modifier that checks if the calling address is the project mananger\n  modifier isManager(){\n      require (msg.sender==manager, \"Sender is not the Manager.\");\n      _;\n  }\n\n  //fallback funtion that reverts \n  function () external payable {\n    revert();\n  }\n  \n  // \"PROJ1\", \"Project 1.0\", 115\n    constructor(\n        string memory _symbol, \n        string memory _name, \n        uint256 _supply,\n        address _owner\n    ) \n        public\n    {\n        manager = _owner;\n        dateOfDeploy = block.timestamp;\n        WHtoken = new StandardToken( _name, _symbol, 10, _supply);\n    }\n\n  /**\n  * Getter function that returns the name of the Token. \n  * @return An address specifying the address of the project manager. \n  */\n\n  function getManager() public view returns (address) {\n    return manager;\n  }\n\n  /**\n  * Getter function that returns the name of the Token. \n  * @return A string specifying the name of the token. \n  */\n\n  function getName() public view returns (string memory) {\n    return WHtoken.name();\n  }\n\n  /**\n  * Getter function that returns the 5 digit symbol of the Token. \n  * @return A string specifying the symbol of the token. \n  */\n\n  function getSymbol() public view returns (string memory) {\n    return WHtoken.symbol();\n  }\n\n  /**\n  * Getter function that returns the total Token Supply. \n  * @return A uint256 specifying the total supply of the token and hard cap of the crowdsale. \n  */\n\n  function getSupply() public view returns (uint256) {\n    return WHtoken.supply();\n  }\n\n\n\n  // function set(uint x) public {\n  //   totalSupply += x;\n  // }\n}\n\n\n\n\n\n// contract WHTokenSale{\n//     bool didWithdraw ;                                      // bool that tracks if manager has withdrawn the funds already\n//     bool tokenSaleOngoing = true;                           // keeps traack if tokensale is still ongoing or already over\n//     uint public totalRevenue;                               // uint that keeps track of the total accumulate revenue over time\n//     uint totalSupply;                                       // total Supply (hardcap)\n//     uint public amountRaised;                               // uint that keeps track of how much was raised\n//     address public manager;                                 // address of manager/project leader\n//     mapping (address => uint) public totalWithdrawn;        // cumulative amount of all withdrawals\n    \n  \n//     // \"W\",\"W\",10, 100 ether\n//     constructor(\n//         string _name, \n//         string _symbol, \n//         uint8 _decimals, \n//         uint256 _hardcap\n//     ) \n//         public \n//         payable \n//     {\n//         manager = msg.sender;\n//         totalSupply = _hardcap;\n//         WHtoken = new StandardToken( _name, _symbol, _decimals, _hardcap);\n//     }\n    \n    \n//  \n  \n//     // Crowdsale\n   \n//     function buyTokens() public payable {\n        \n//         require(tokenSaleOngoing, \"Token sale has closed\");  // requires tokensale to be not over yet\n//         require(msg.value > 0);  // checks if message contains any ether\n//         require(amountRaised + msg.value > amountRaised);           // checks for overflows\n//         require(totalSupply > amountRaised, \"Hard Cap is reached\");   // checks if enough tokens are still available\n//         uint256 amount = msg.value;\n        \n//         // test if buyer overshoots the hardcap and if yes, refunds the remaining funds\n//         if (totalSupply < amountRaised + msg.value)\n//         {\n//             // any requires here?\n//             amount = totalSupply - amountRaised;\n//             uint256 refundAmount = msg.value - amount;\n//             tokenSaleOngoing = false;\n//             refund(msg.sender, refundAmount); // maybe require(refund(...)) with refund returns which then throws an error if it doenst execute\n//         }\n\n//         amountRaised += amount;                         // updates how much was raised in total\n//         WHtoken.addBalance(msg.sender, amount);\n//         //tokenBalance[msg.sender] += amount;\n//     }\n    \n//     /**\n//      * Getter function that returns Token Balance of the function caller (message sender). \n//      * @return A uint256 specifying the Token Balance of the function caller (message sender). \n//      */\n//     function getTokenBalance() public view returns(uint256) {\n//         address sender = msg.sender;\n//         return WHtoken.tokenBalance(sender);\n//     }\n\n\n//     //transfer functions\n    \n    \n//     // refund functions\n//     function refund(address _receiver, uint256 _amount) public payable{\n//         _receiver.transfer(_amount);\n//     }\n   \n   \n//     // Revenue Distribution\n      \n//     /** \n//      * function that lets Manager withdraw all the raised funds, \n//      (is intended to only be called once after fundaraise is over)\n//      */\n    \n//     // function that allos project managet to withdraw the raised funds\n//     // option: require that the cap is reached in order to withdraw \n//     function managerWithdrawal() isManager public returns(string) {\n//         require(!didWithdraw,\"Raised money already withdrawn\");         // require that manager didnt already withdraw the funds\n//         require(amountRaised >= totalSupply);                           // funds can only be withdrawn once crowdsale is over (reached hard cap)\n//         didWithdraw=true;\n//         msg.sender.transfer(address(this).balance); \n//         return \"The total balance has been withdrawn\";  // \"amount of X\"\n//     }\n\n    \n//     /**\n//      * Getter function that returns the ether balance of the contract address. \n//      * @return A uint256 specifying the the ether balance of the contract address. \n//      */\n//     function getContractBalance() public view returns(uint) {\n//         return address(this).balance;\n//     }\n    \n//     /** function to withdraw revenue */\n   \n//     function withrdraw(uint _withdrawal) payable public {\n    \n//         require(didWithdraw);       // require that the raised funds have already been withdrawn\n//         require(address(this).balance >= _withdrawal);                              // checking if balance is sufficient\n//         require(address(this).balance - _withdrawal <= address(this).balance);      // checking against overflows\n  \n//         // checking if caller is entitled to withdraw (owns token + hasnt withdrawn already)      \n//         //require msg.sender in list + not already withdrawn: totalRevenue*ANTEIL-totalWithdrawn[msg.sender]>=withdrawal\n            \n//         //require(totalRevenue*(WHtoken.tokenBalance(msg.sender) / totalSupply) - totalWithdrawn[msg.sender] <= address(this).balance );\n            \n//         totalWithdrawn[msg.sender] += _withdrawal;\n//         msg.sender.transfer(_withdrawal); \n        \n//     }\n\n    \n//     /**\n//      * Getter function that returns the amount of ether the function caller already has withdrawn. \n//      * @return A uint256 that keeps track of how much the function caller already has withdrawn. \n//      */\n//     function getTotalWithdrawn () public view returns (uint) {\n//         return totalWithdrawn[msg.sender];\n//     }\n    \n// }",
  "sourcePath": "/Users/Len/Desktop/github/unboxing/contracts/SimpleStorage.sol",
  "compiler": {
    "name": "solc",
    "version": "0.5.0+commit.1d4f565a.Emscripten.clang"
  },
  "schemaVersion": "3.0.1",
  "updatedAt": "2019-02-15T22:10:16.602Z",
  "devdoc": {
    "methods": {
      "getManager()": {
        "return": "An address specifying the address of the project manager. "
      },
      "getName()": {
        "return": "A string specifying the name of the token. "
      },
      "getSupply()": {
        "return": "A uint256 specifying the total supply of the token and hard cap of the crowdsale. "
      },
      "getSymbol()": {
        "return": "A string specifying the symbol of the token. "
      }
    }
  },
  "userdoc": {
    "methods": {
      "getManager()": {
        "notice": "Getter function that returns the name of the Token. "
      },
      "getName()": {
        "notice": "Getter function that returns the name of the Token. "
      },
      "getSupply()": {
        "notice": "Getter function that returns the total Token Supply. "
      },
      "getSymbol()": {
        "notice": "Getter function that returns the 5 digit symbol of the Token. "
      }
    }
  }
}