{
  "contractName": "StandardToken",
  "abi": [
    {
      "constant": true,
      "inputs": [],
      "name": "supply",
      "outputs": [
        {
          "name": "",
          "type": "uint256"
        }
      ],
      "payable": false,
      "stateMutability": "view",
      "type": "function"
    },
    {
      "constant": true,
      "inputs": [],
      "name": "name",
      "outputs": [
        {
          "name": "",
          "type": "string"
        }
      ],
      "payable": false,
      "stateMutability": "view",
      "type": "function"
    },
    {
      "constant": true,
      "inputs": [],
      "name": "decimals",
      "outputs": [
        {
          "name": "",
          "type": "uint256"
        }
      ],
      "payable": false,
      "stateMutability": "view",
      "type": "function"
    },
    {
      "constant": true,
      "inputs": [],
      "name": "symbol",
      "outputs": [
        {
          "name": "",
          "type": "string"
        }
      ],
      "payable": false,
      "stateMutability": "view",
      "type": "function"
    },
    {
      "inputs": [
        {
          "name": "_name",
          "type": "string"
        },
        {
          "name": "_symbol",
          "type": "string"
        },
        {
          "name": "_decimals",
          "type": "uint256"
        },
        {
          "name": "_supply",
          "type": "uint256"
        }
      ],
      "payable": false,
      "stateMutability": "nonpayable",
      "type": "constructor"
    },
    {
      "constant": false,
      "inputs": [
        {
          "name": "_spender",
          "type": "address"
        },
        {
          "name": "_value",
          "type": "uint256"
        }
      ],
      "name": "approve",
      "outputs": [
        {
          "name": "",
          "type": "bool"
        }
      ],
      "payable": false,
      "stateMutability": "nonpayable",
      "type": "function"
    },
    {
      "constant": true,
      "inputs": [
        {
          "name": "_owner",
          "type": "address"
        },
        {
          "name": "_spender",
          "type": "address"
        }
      ],
      "name": "allowance",
      "outputs": [
        {
          "name": "",
          "type": "uint256"
        }
      ],
      "payable": false,
      "stateMutability": "view",
      "type": "function"
    }
  ],
  "bytecode": "0x608060405234801561001057600080fd5b506040516107563803806107568339810180604052608081101561003357600080fd5b81019080805164010000000081111561004b57600080fd5b8281019050602081018481111561006157600080fd5b815185600182028301116401000000008211171561007e57600080fd5b5050929190602001805164010000000081111561009a57600080fd5b828101905060208101848111156100b057600080fd5b81518560018202830111640100000000821117156100cd57600080fd5b505092919060200180519060200190929190805190602001909291905050508360019080519060200190610102929190610131565b508260029080519060200190610119929190610131565b508160038190555080600481905550505050506101d6565b828054600181600116156101000203166002900490600052602060002090601f016020900481019282601f1061017257805160ff19168380011785556101a0565b828001600101855582156101a0579182015b8281111561019f578251825591602001919060010190610184565b5b5090506101ad91906101b1565b5090565b6101d391905b808211156101cf5760008160009055506001016101b7565b5090565b90565b610571806101e56000396000f3fe608060405260043610610078576000357c0100000000000000000000000000000000000000000000000000000000900463ffffffff168063047fc9aa1461007d57806306fdde03146100a8578063095ea7b314610138578063313ce567146101ab57806395d89b41146101d6578063dd62ed3e14610266575b600080fd5b34801561008957600080fd5b506100926102eb565b6040518082815260200191505060405180910390f35b3480156100b457600080fd5b506100bd6102f1565b6040518080602001828103825283818151815260200191508051906020019080838360005b838110156100fd5780820151818401526020810190506100e2565b50505050905090810190601f16801561012a5780820380516001836020036101000a031916815260200191505b509250505060405180910390f35b34801561014457600080fd5b506101916004803603604081101561015b57600080fd5b81019080803573ffffffffffffffffffffffffffffffffffffffff1690602001909291908035906020019092919050505061038f565b604051808215151515815260200191505060405180910390f35b3480156101b757600080fd5b506101c061041b565b6040518082815260200191505060405180910390f35b3480156101e257600080fd5b506101eb610421565b6040518080602001828103825283818151815260200191508051906020019080838360005b8381101561022b578082015181840152602081019050610210565b50505050905090810190601f1680156102585780820380516001836020036101000a031916815260200191505b509250505060405180910390f35b34801561027257600080fd5b506102d56004803603604081101561028957600080fd5b81019080803573ffffffffffffffffffffffffffffffffffffffff169060200190929190803573ffffffffffffffffffffffffffffffffffffffff1690602001909291905050506104bf565b6040518082815260200191505060405180910390f35b60045481565b60018054600181600116156101000203166002900480601f0160208091040260200160405190810160405280929190818152602001828054600181600116156101000203166002900480156103875780601f1061035c57610100808354040283529160200191610387565b820191906000526020600020905b81548152906001019060200180831161036a57829003601f168201915b505050505081565b6000816000803373ffffffffffffffffffffffffffffffffffffffff1673ffffffffffffffffffffffffffffffffffffffff16815260200190815260200160002060008573ffffffffffffffffffffffffffffffffffffffff1673ffffffffffffffffffffffffffffffffffffffff168152602001908152602001600020819055506001905092915050565b60035481565b60028054600181600116156101000203166002900480601f0160208091040260200160405190810160405280929190818152602001828054600181600116156101000203166002900480156104b75780601f1061048c576101008083540402835291602001916104b7565b820191906000526020600020905b81548152906001019060200180831161049a57829003601f168201915b505050505081565b60008060008473ffffffffffffffffffffffffffffffffffffffff1673ffffffffffffffffffffffffffffffffffffffff16815260200190815260200160002060008373ffffffffffffffffffffffffffffffffffffffff1673ffffffffffffffffffffffffffffffffffffffff1681526020019081526020016000205490509291505056fea165627a7a72305820fb4404504b1e2d4f4cb0c3e6a56443c38cce0749e5b99eccaeea1c80320758dd0029",
  "source": "pragma solidity ^0.5.0;\n\nimport \"./BasicToken.sol\";\n\n\n/**\n * @title Standard ERC20 token\n *\n * @dev Implementation of the basic standard token.\n * https://github.com/ethereum/EIPs/issues/20\n * Based on code by FirstBlood: https://github.com/Firstbloodio/token/blob/master/smart_contract/FirstBloodToken.sol\n */\ncontract StandardToken {\n\n    mapping (address => mapping (address => uint256)) internal allowed;\n    string public name;\n    string public symbol;\n    uint256 public decimals;\n    uint256 public supply;\n\n    constructor(string memory _name, string memory _symbol, uint256 _decimals, uint256 _supply) public {\n        name = _name;\n        symbol = _symbol; \n        decimals = _decimals; \n        supply = _supply;   \n    }\n\n//   /**\n//    * @dev Transfer tokens from one address to another\n//    * @param _from address The address which you want to send tokens from\n//    * @param _to address The address which you want to transfer to\n//    * @param _value uint256 the amount of tokens to be transferred\n//    */\n//     function transferFrom(\n//         address _from,\n//         address _to,\n//         uint256 _value\n//     )\n//     public\n//     returns (bool)\n//     {\n//         require(_to != address(0));\n//         require(_value <= balances[_from]);\n//         require(_value <= allowed[_from][msg.sender]);\n\n//         balances[_from] = balances[_from].sub(_value);\n//         balances[_to] = balances[_to].add(_value);\n//         allowed[_from][msg.sender] = allowed[_from][msg.sender].sub(_value);\n//         //emit Transfer(_from, _to, _value);\n//         return true;\n//     }\n\n    /**\n    * @dev Approve the passed address to spend the specified amount of tokens on behalf of msg.sender.\n    * Beware that changing an allowance with this method brings the risk that someone may use both the old\n    * and the new allowance by unfortunate transaction ordering. One possible solution to mitigate this\n    * race condition is to first reduce the spender's allowance to 0 and set the desired value afterwards:\n    * https://github.com/ethereum/EIPs/issues/20#issuecomment-263524729\n    * @param _spender The address which will spend the funds.\n    * @param _value The amount of tokens to be spent.\n    */\n    function approve(address _spender, uint256 _value) public returns (bool) {\n        allowed[msg.sender][_spender] = _value;\n        //emit Approval(msg.sender, _spender, _value);\n        return true;\n    }\n\n    /**\n    * @dev Function to check the amount of tokens that an owner allowed to a spender.\n    * @param _owner address The address which owns the funds.\n    * @param _spender address The address which will spend the funds.\n    * @return A uint256 specifying the amount of tokens still available for the spender.\n    */\n    function allowance(\n        address _owner,\n        address _spender\n    )\n    public\n    view\n    returns (uint256)\n    {\n        return allowed[_owner][_spender];\n    }\n\n    // /**\n    // * @dev Increase the amount of tokens that an owner allowed to a spender.\n    // * approve should be called when allowed[_spender] == 0. To increment\n    // * allowed value is better to use this function to avoid 2 calls (and wait until\n    // * the first transaction is mined)\n    // * From MonolithDAO Token.sol\n    // * @param _spender The address which will spend the funds.\n    // * @param _addedValue The amount of tokens to increase the allowance by.\n    // */\n    // function increaseApproval(\n    //     address _spender,\n    //     uint256 _addedValue\n    // )\n    // public\n    // returns (bool) \n    // {\n    //     allowed[msg.sender][_spender] = (\n    //     allowed[msg.sender][_spender].add(_addedValue));\n    //     //emit Approval(msg.sender, _spender, allowed[msg.sender][_spender]);\n    //     return true;\n    // }\n\n    // /**\n    // * @dev Decrease the amount of tokens that an owner allowed to a spender.\n    // * approve should be called when allowed[_spender] == 0. To decrement\n    // * allowed value is better to use this function to avoid 2 calls (and wait until\n    // * the first transaction is mined)\n    // * From MonolithDAO Token.sol\n    // * @param _spender The address which will spend the funds.\n    // * @param _subtractedValue The amount of tokens to decrease the allowance by.\n    // */\n    // function decreaseApproval(\n    //     address _spender,\n    //     uint256 _subtractedValue\n    // )\n    //     public\n    //     returns (bool)\n    // {\n    //     uint256 oldValue = allowed[msg.sender][_spender];\n    //     if (_subtractedValue > oldValue) {\n    //         allowed[msg.sender][_spender] = 0;\n    //     } else {\n    //         allowed[msg.sender][_spender] = oldValue.sub(_subtractedValue);\n    //     }\n    //     //emit Approval(msg.sender, _spender, allowed[msg.sender][_spender]);\n    //     return true;\n    // }\n\n}",
  "sourcePath": "/Users/Len/Desktop/github/unboxing/contracts/StandardToken.sol",
  "compiler": {
    "name": "solc",
    "version": "0.5.0+commit.1d4f565a.Emscripten.clang"
  },
  "schemaVersion": "3.0.1",
  "updatedAt": "2019-01-21T09:54:00.153Z",
  "devdoc": {
    "details": "Implementation of the basic standard token. https://github.com/ethereum/EIPs/issues/20 Based on code by FirstBlood: https://github.com/Firstbloodio/token/blob/master/smart_contract/FirstBloodToken.sol",
    "methods": {
      "allowance(address,address)": {
        "details": "Function to check the amount of tokens that an owner allowed to a spender.",
        "params": {
          "_owner": "address The address which owns the funds.",
          "_spender": "address The address which will spend the funds."
        },
        "return": "A uint256 specifying the amount of tokens still available for the spender."
      },
      "approve(address,uint256)": {
        "details": "Approve the passed address to spend the specified amount of tokens on behalf of msg.sender. Beware that changing an allowance with this method brings the risk that someone may use both the old and the new allowance by unfortunate transaction ordering. One possible solution to mitigate this race condition is to first reduce the spender's allowance to 0 and set the desired value afterwards: https://github.com/ethereum/EIPs/issues/20#issuecomment-263524729",
        "params": {
          "_spender": "The address which will spend the funds.",
          "_value": "The amount of tokens to be spent."
        }
      }
    },
    "title": "Standard ERC20 token"
  },
  "userdoc": {
    "methods": {}
  }
}